{
  "_format": "hh-sol-artifact-1",
  "contractName": "Deployer721",
  "sourceName": "contracts/Deployer721.sol",
  "abi": [
    {
      "anonymous": false,
      "inputs": [
        {
          "indexed": false,
          "internalType": "address",
          "name": "collection",
          "type": "address"
        },
        {
          "indexed": false,
          "internalType": "string",
          "name": "name",
          "type": "string"
        },
        {
          "indexed": false,
          "internalType": "string",
          "name": "symbol",
          "type": "string"
        }
      ],
      "name": "CollectionCreated",
      "type": "event"
    },
    {
      "anonymous": false,
      "inputs": [
        {
          "indexed": true,
          "internalType": "address",
          "name": "previousOwner",
          "type": "address"
        },
        {
          "indexed": true,
          "internalType": "address",
          "name": "newOwner",
          "type": "address"
        }
      ],
      "name": "OwnershipTransferred",
      "type": "event"
    },
    {
      "anonymous": false,
      "inputs": [
        {
          "indexed": false,
          "internalType": "address",
          "name": "collection",
          "type": "address"
        },
        {
          "indexed": false,
          "internalType": "address",
          "name": "recipient",
          "type": "address"
        },
        {
          "indexed": false,
          "internalType": "uint256",
          "name": "tokenId",
          "type": "uint256"
        },
        {
          "indexed": false,
          "internalType": "string",
          "name": "tokenUri",
          "type": "string"
        }
      ],
      "name": "TokenMinted",
      "type": "event"
    },
    {
      "inputs": [
        {
          "internalType": "uint256",
          "name": "",
          "type": "uint256"
        }
      ],
      "name": "collections",
      "outputs": [
        {
          "internalType": "contract Collection",
          "name": "",
          "type": "address"
        }
      ],
      "stateMutability": "view",
      "type": "function"
    },
    {
      "inputs": [
        {
          "internalType": "contract Collection",
          "name": "",
          "type": "address"
        }
      ],
      "name": "collectionsLookup",
      "outputs": [
        {
          "internalType": "bool",
          "name": "",
          "type": "bool"
        }
      ],
      "stateMutability": "view",
      "type": "function"
    },
    {
      "inputs": [
        {
          "internalType": "string",
          "name": "name",
          "type": "string"
        },
        {
          "internalType": "string",
          "name": "symbol",
          "type": "string"
        }
      ],
      "name": "deployCollection",
      "outputs": [],
      "stateMutability": "nonpayable",
      "type": "function"
    },
    {
      "inputs": [
        {
          "internalType": "contract Collection",
          "name": "collection",
          "type": "address"
        },
        {
          "internalType": "uint256",
          "name": "tokenId",
          "type": "uint256"
        },
        {
          "internalType": "string",
          "name": "uri",
          "type": "string"
        },
        {
          "internalType": "address",
          "name": "to",
          "type": "address"
        }
      ],
      "name": "mint",
      "outputs": [],
      "stateMutability": "nonpayable",
      "type": "function"
    },
    {
      "inputs": [],
      "name": "owner",
      "outputs": [
        {
          "internalType": "address",
          "name": "",
          "type": "address"
        }
      ],
      "stateMutability": "view",
      "type": "function"
    },
    {
      "inputs": [],
      "name": "renounceOwnership",
      "outputs": [],
      "stateMutability": "nonpayable",
      "type": "function"
    },
    {
      "inputs": [
        {
          "internalType": "address",
          "name": "newOwner",
          "type": "address"
        }
      ],
      "name": "transferOwnership",
      "outputs": [],
      "stateMutability": "nonpayable",
      "type": "function"
    }
  ],
  "bytecode": "0x608060405234801561001057600080fd5b5061002d61002261003260201b60201c565b61003a60201b60201c565b6100fe565b600033905090565b60008060009054906101000a900473ffffffffffffffffffffffffffffffffffffffff169050816000806101000a81548173ffffffffffffffffffffffffffffffffffffffff021916908373ffffffffffffffffffffffffffffffffffffffff1602179055508173ffffffffffffffffffffffffffffffffffffffff168173ffffffffffffffffffffffffffffffffffffffff167f8be0079c531659141344cd1fd0a4f28419497f9722a3daafe3b4186f6b6457e060405160405180910390a35050565b6144048061010d6000396000f3fe60806040523480156200001157600080fd5b5060043610620000885760003560e01c80637cfc3ddf11620000635780637cfc3ddf14620000ef5780638da5cb5b146200010f578063f2fde38b1462000131578063fdbda0ec14620001515762000088565b8063296fbc9e146200008d5780636417264314620000ad578063715018a614620000e3575b600080fd5b620000ab6004803603810190620000a5919062000814565b62000187565b005b620000cb6004803603810190620000c5919062000912565b620002cd565b604051620000da919062000961565b60405180910390f35b620000ed620002ed565b005b6200010d6004803603810190620001079190620009ea565b62000305565b005b620001196200044c565b60405162000128919062000a8c565b60405180910390f35b6200014f600480360381019062000149919062000aa9565b62000475565b005b6200016f600480360381019062000169919062000adb565b620004ff565b6040516200017e919062000b78565b60405180910390f35b620001916200053f565b60008282604051620001a39062000690565b620001b092919062000c1e565b604051809103906000f080158015620001cd573d6000803e3d6000fd5b5090506001819080600181540180825580915050600190039060005260206000200160009091909190916101000a81548173ffffffffffffffffffffffffffffffffffffffff021916908373ffffffffffffffffffffffffffffffffffffffff1602179055506001600260008373ffffffffffffffffffffffffffffffffffffffff1673ffffffffffffffffffffffffffffffffffffffff16815260200190815260200160002060006101000a81548160ff0219169083151502179055507f3454b57f2dca4f5a54e8358d096ac9d1a0d2dab98991ddb89ff9ea1746260617818484604051620002c09392919062000c59565b60405180910390a1505050565b60026020528060005260406000206000915054906101000a900460ff1681565b620002f76200053f565b620003036000620005c4565b565b600260008573ffffffffffffffffffffffffffffffffffffffff1673ffffffffffffffffffffffffffffffffffffffff16815260200190815260200160002060009054906101000a900460ff1662000394576040517f08c379a00000000000000000000000000000000000000000000000000000000081526004016200038b9062000d1a565b60405180910390fd5b8373ffffffffffffffffffffffffffffffffffffffff1663d3fc98648285856040518463ffffffff1660e01b8152600401620003d39392919062000d4d565b600060405180830381600087803b158015620003ee57600080fd5b505af115801562000403573d6000803e3d6000fd5b505050507fc9fee7cd4889f66f10ff8117316524260a5242e88e25e0656dfb3f4196a21917848285856040516200043e949392919062000d91565b60405180910390a150505050565b60008060009054906101000a900473ffffffffffffffffffffffffffffffffffffffff16905090565b6200047f6200053f565b600073ffffffffffffffffffffffffffffffffffffffff168173ffffffffffffffffffffffffffffffffffffffff1603620004f1576040517f08c379a0000000000000000000000000000000000000000000000000000000008152600401620004e89062000e5b565b60405180910390fd5b620004fc81620005c4565b50565b600181815481106200051057600080fd5b906000526020600020016000915054906101000a900473ffffffffffffffffffffffffffffffffffffffff1681565b6200054962000688565b73ffffffffffffffffffffffffffffffffffffffff16620005696200044c565b73ffffffffffffffffffffffffffffffffffffffff1614620005c2576040517f08c379a0000000000000000000000000000000000000000000000000000000008152600401620005b99062000ecd565b60405180910390fd5b565b60008060009054906101000a900473ffffffffffffffffffffffffffffffffffffffff169050816000806101000a81548173ffffffffffffffffffffffffffffffffffffffff021916908373ffffffffffffffffffffffffffffffffffffffff1602179055508173ffffffffffffffffffffffffffffffffffffffff168173ffffffffffffffffffffffffffffffffffffffff167f8be0079c531659141344cd1fd0a4f28419497f9722a3daafe3b4186f6b6457e060405160405180910390a35050565b600033905090565b6134df8062000ef083390190565b6000604051905090565b600080fd5b600080fd5b600080fd5b600080fd5b6000601f19601f8301169050919050565b7f4e487b7100000000000000000000000000000000000000000000000000000000600052604160045260246000fd5b6200070782620006bc565b810181811067ffffffffffffffff82111715620007295762000728620006cd565b5b80604052505050565b60006200073e6200069e565b90506200074c8282620006fc565b919050565b600067ffffffffffffffff8211156200076f576200076e620006cd565b5b6200077a82620006bc565b9050602081019050919050565b82818337600083830152505050565b6000620007ad620007a78462000751565b62000732565b905082815260208101848484011115620007cc57620007cb620006b7565b5b620007d984828562000787565b509392505050565b600082601f830112620007f957620007f8620006b2565b5b81356200080b84826020860162000796565b91505092915050565b600080604083850312156200082e576200082d620006a8565b5b600083013567ffffffffffffffff8111156200084f576200084e620006ad565b5b6200085d85828601620007e1565b925050602083013567ffffffffffffffff811115620008815762000880620006ad565b5b6200088f85828601620007e1565b9150509250929050565b600073ffffffffffffffffffffffffffffffffffffffff82169050919050565b6000620008c68262000899565b9050919050565b6000620008da82620008b9565b9050919050565b620008ec81620008cd565b8114620008f857600080fd5b50565b6000813590506200090c81620008e1565b92915050565b6000602082840312156200092b576200092a620006a8565b5b60006200093b84828501620008fb565b91505092915050565b60008115159050919050565b6200095b8162000944565b82525050565b600060208201905062000978600083018462000950565b92915050565b6000819050919050565b62000993816200097e565b81146200099f57600080fd5b50565b600081359050620009b38162000988565b92915050565b620009c481620008b9565b8114620009d057600080fd5b50565b600081359050620009e481620009b9565b92915050565b6000806000806080858703121562000a075762000a06620006a8565b5b600062000a1787828801620008fb565b945050602062000a2a87828801620009a2565b935050604085013567ffffffffffffffff81111562000a4e5762000a4d620006ad565b5b62000a5c87828801620007e1565b925050606062000a6f87828801620009d3565b91505092959194509250565b62000a8681620008b9565b82525050565b600060208201905062000aa3600083018462000a7b565b92915050565b60006020828403121562000ac25762000ac1620006a8565b5b600062000ad284828501620009d3565b91505092915050565b60006020828403121562000af45762000af3620006a8565b5b600062000b0484828501620009a2565b91505092915050565b6000819050919050565b600062000b3862000b3262000b2c8462000899565b62000b0d565b62000899565b9050919050565b600062000b4c8262000b17565b9050919050565b600062000b608262000b3f565b9050919050565b62000b728162000b53565b82525050565b600060208201905062000b8f600083018462000b67565b92915050565b600081519050919050565b600082825260208201905092915050565b60005b8381101562000bd157808201518184015260208101905062000bb4565b60008484015250505050565b600062000bea8262000b95565b62000bf6818562000ba0565b935062000c0881856020860162000bb1565b62000c1381620006bc565b840191505092915050565b6000604082019050818103600083015262000c3a818562000bdd565b9050818103602083015262000c50818462000bdd565b90509392505050565b600060608201905062000c70600083018662000a7b565b818103602083015262000c84818562000bdd565b9050818103604083015262000c9a818462000bdd565b9050949350505050565b7f5468697320636f6c6c656374696f6e20646f6573206e6f742062656c6f6e672060008201527f746f2074686520696e6465780000000000000000000000000000000000000000602082015250565b600062000d02602c8362000ba0565b915062000d0f8262000ca4565b604082019050919050565b6000602082019050818103600083015262000d358162000cf3565b9050919050565b62000d47816200097e565b82525050565b600060608201905062000d64600083018662000a7b565b62000d73602083018562000d3c565b818103604083015262000d87818462000bdd565b9050949350505050565b600060808201905062000da8600083018762000a7b565b62000db7602083018662000a7b565b62000dc6604083018562000d3c565b818103606083015262000dda818462000bdd565b905095945050505050565b7f4f776e61626c653a206e6577206f776e657220697320746865207a65726f206160008201527f6464726573730000000000000000000000000000000000000000000000000000602082015250565b600062000e4360268362000ba0565b915062000e508262000de5565b604082019050919050565b6000602082019050818103600083015262000e768162000e34565b9050919050565b7f4f776e61626c653a2063616c6c6572206973206e6f7420746865206f776e6572600082015250565b600062000eb560208362000ba0565b915062000ec28262000e7d565b602082019050919050565b6000602082019050818103600083015262000ee88162000ea6565b905091905056fe60806040523480156200001157600080fd5b50604051620034df380380620034df8339818101604052810190620000379190620002e8565b818181600090816200004a9190620005b8565b5080600190816200005c9190620005b8565b5050506200007f620000736200008760201b60201c565b6200008f60201b60201c565b50506200069f565b600033905090565b6000600760009054906101000a900473ffffffffffffffffffffffffffffffffffffffff16905081600760006101000a81548173ffffffffffffffffffffffffffffffffffffffff021916908373ffffffffffffffffffffffffffffffffffffffff1602179055508173ffffffffffffffffffffffffffffffffffffffff168173ffffffffffffffffffffffffffffffffffffffff167f8be0079c531659141344cd1fd0a4f28419497f9722a3daafe3b4186f6b6457e060405160405180910390a35050565b6000604051905090565b600080fd5b600080fd5b600080fd5b600080fd5b6000601f19601f8301169050919050565b7f4e487b7100000000000000000000000000000000000000000000000000000000600052604160045260246000fd5b620001be8262000173565b810181811067ffffffffffffffff82111715620001e057620001df62000184565b5b80604052505050565b6000620001f562000155565b9050620002038282620001b3565b919050565b600067ffffffffffffffff82111562000226576200022562000184565b5b620002318262000173565b9050602081019050919050565b60005b838110156200025e57808201518184015260208101905062000241565b60008484015250505050565b6000620002816200027b8462000208565b620001e9565b905082815260208101848484011115620002a0576200029f6200016e565b5b620002ad8482856200023e565b509392505050565b600082601f830112620002cd57620002cc62000169565b5b8151620002df8482602086016200026a565b91505092915050565b600080604083850312156200030257620003016200015f565b5b600083015167ffffffffffffffff81111562000323576200032262000164565b5b6200033185828601620002b5565b925050602083015167ffffffffffffffff81111562000355576200035462000164565b5b6200036385828601620002b5565b9150509250929050565b600081519050919050565b7f4e487b7100000000000000000000000000000000000000000000000000000000600052602260045260246000fd5b60006002820490506001821680620003c057607f821691505b602082108103620003d657620003d562000378565b5b50919050565b60008190508160005260206000209050919050565b60006020601f8301049050919050565b600082821b905092915050565b600060088302620004407fffffffffffffffffffffffffffffffffffffffffffffffffffffffffffffffff8262000401565b6200044c868362000401565b95508019841693508086168417925050509392505050565b6000819050919050565b6000819050919050565b600062000499620004936200048d8462000464565b6200046e565b62000464565b9050919050565b6000819050919050565b620004b58362000478565b620004cd620004c482620004a0565b8484546200040e565b825550505050565b600090565b620004e4620004d5565b620004f1818484620004aa565b505050565b5b8181101562000519576200050d600082620004da565b600181019050620004f7565b5050565b601f82111562000568576200053281620003dc565b6200053d84620003f1565b810160208510156200054d578190505b620005656200055c85620003f1565b830182620004f6565b50505b505050565b600082821c905092915050565b60006200058d600019846008026200056d565b1980831691505092915050565b6000620005a883836200057a565b9150826002028217905092915050565b620005c3826200036d565b67ffffffffffffffff811115620005df57620005de62000184565b5b620005eb8254620003a7565b620005f88282856200051d565b600060209050601f8311600181146200063057600084156200061b578287015190505b6200062785826200059a565b86555062000697565b601f1984166200064086620003dc565b60005b828110156200066a5784890151825560018201915060208501945060208101905062000643565b868310156200068a578489015162000686601f8916826200057a565b8355505b6001600288020188555050505b505050505050565b612e3080620006af6000396000f3fe608060405234801561001057600080fd5b506004361061010b5760003560e01c8063715018a6116100a2578063b88d4fde11610071578063b88d4fde146102a4578063c87b56dd146102c0578063d3fc9864146102f0578063e985e9c51461030c578063f2fde38b1461033c5761010b565b8063715018a6146102425780638da5cb5b1461024c57806395d89b411461026a578063a22cb465146102885761010b565b806323b872dd116100de57806323b872dd146101aa57806342842e0e146101c65780636352211e146101e257806370a08231146102125761010b565b806301ffc9a71461011057806306fdde0314610140578063081812fc1461015e578063095ea7b31461018e575b600080fd5b61012a60048036038101906101259190611c0e565b610358565b6040516101379190611c56565b60405180910390f35b61014861036a565b6040516101559190611d01565b60405180910390f35b61017860048036038101906101739190611d59565b6103fc565b6040516101859190611dc7565b60405180910390f35b6101a860048036038101906101a39190611e0e565b610442565b005b6101c460048036038101906101bf9190611e4e565b610559565b005b6101e060048036038101906101db9190611e4e565b6105b9565b005b6101fc60048036038101906101f79190611d59565b6105d9565b6040516102099190611dc7565b60405180910390f35b61022c60048036038101906102279190611ea1565b61065f565b6040516102399190611edd565b60405180910390f35b61024a610716565b005b61025461072a565b6040516102619190611dc7565b60405180910390f35b610272610754565b60405161027f9190611d01565b60405180910390f35b6102a2600480360381019061029d9190611f24565b6107e6565b005b6102be60048036038101906102b99190612099565b6107fc565b005b6102da60048036038101906102d59190611d59565b61085e565b6040516102e79190611d01565b60405180910390f35b61030a600480360381019061030591906121bd565b610870565b005b6103266004803603810190610321919061222c565b610891565b6040516103339190611c56565b60405180910390f35b61035660048036038101906103519190611ea1565b610925565b005b6000610363826109a8565b9050919050565b6060600080546103799061229b565b80601f01602080910402602001604051908101604052809291908181526020018280546103a59061229b565b80156103f25780601f106103c7576101008083540402835291602001916103f2565b820191906000526020600020905b8154815290600101906020018083116103d557829003601f168201915b5050505050905090565b600061040782610a09565b6004600083815260200190815260200160002060009054906101000a900473ffffffffffffffffffffffffffffffffffffffff169050919050565b600061044d826105d9565b90508073ffffffffffffffffffffffffffffffffffffffff168373ffffffffffffffffffffffffffffffffffffffff16036104bd576040517f08c379a00000000000000000000000000000000000000000000000000000000081526004016104b49061233e565b60405180910390fd5b8073ffffffffffffffffffffffffffffffffffffffff166104dc610a54565b73ffffffffffffffffffffffffffffffffffffffff16148061050b575061050a81610505610a54565b610891565b5b61054a576040517f08c379a0000000000000000000000000000000000000000000000000000000008152600401610541906123d0565b60405180910390fd5b6105548383610a5c565b505050565b61056a610564610a54565b82610b15565b6105a9576040517f08c379a00000000000000000000000000000000000000000000000000000000081526004016105a090612462565b60405180910390fd5b6105b4838383610baa565b505050565b6105d4838383604051806020016040528060008152506107fc565b505050565b6000806105e583610ea3565b9050600073ffffffffffffffffffffffffffffffffffffffff168173ffffffffffffffffffffffffffffffffffffffff1603610656576040517f08c379a000000000000000000000000000000000000000000000000000000000815260040161064d906124ce565b60405180910390fd5b80915050919050565b60008073ffffffffffffffffffffffffffffffffffffffff168273ffffffffffffffffffffffffffffffffffffffff16036106cf576040517f08c379a00000000000000000000000000000000000000000000000000000000081526004016106c690612560565b60405180910390fd5b600360008373ffffffffffffffffffffffffffffffffffffffff1673ffffffffffffffffffffffffffffffffffffffff168152602001908152602001600020549050919050565b61071e610ee0565b6107286000610f5e565b565b6000600760009054906101000a900473ffffffffffffffffffffffffffffffffffffffff16905090565b6060600180546107639061229b565b80601f016020809104026020016040519081016040528092919081815260200182805461078f9061229b565b80156107dc5780601f106107b1576101008083540402835291602001916107dc565b820191906000526020600020905b8154815290600101906020018083116107bf57829003601f168201915b5050505050905090565b6107f86107f1610a54565b8383611024565b5050565b61080d610807610a54565b83610b15565b61084c576040517f08c379a000000000000000000000000000000000000000000000000000000000815260040161084390612462565b60405180910390fd5b61085884848484611190565b50505050565b6060610869826111ec565b9050919050565b610878610ee0565b61088283836112fe565b61088c828261151b565b505050565b6000600560008473ffffffffffffffffffffffffffffffffffffffff1673ffffffffffffffffffffffffffffffffffffffff16815260200190815260200160002060008373ffffffffffffffffffffffffffffffffffffffff1673ffffffffffffffffffffffffffffffffffffffff16815260200190815260200160002060009054906101000a900460ff16905092915050565b61092d610ee0565b600073ffffffffffffffffffffffffffffffffffffffff168173ffffffffffffffffffffffffffffffffffffffff160361099c576040517f08c379a0000000000000000000000000000000000000000000000000000000008152600401610993906125f2565b60405180910390fd5b6109a581610f5e565b50565b6000634906490660e01b7bffffffffffffffffffffffffffffffffffffffffffffffffffffffff1916827bffffffffffffffffffffffffffffffffffffffffffffffffffffffff19161480610a025750610a01826115bf565b5b9050919050565b610a12816116a1565b610a51576040517f08c379a0000000000000000000000000000000000000000000000000000000008152600401610a48906124ce565b60405180910390fd5b50565b600033905090565b816004600083815260200190815260200160002060006101000a81548173ffffffffffffffffffffffffffffffffffffffff021916908373ffffffffffffffffffffffffffffffffffffffff160217905550808273ffffffffffffffffffffffffffffffffffffffff16610acf836105d9565b73ffffffffffffffffffffffffffffffffffffffff167f8c5be1e5ebec7d5bd14f71427d1e84f3dd0314c0f7b2291e5b200ac8c7c3b92560405160405180910390a45050565b600080610b21836105d9565b90508073ffffffffffffffffffffffffffffffffffffffff168473ffffffffffffffffffffffffffffffffffffffff161480610b635750610b628185610891565b5b80610ba157508373ffffffffffffffffffffffffffffffffffffffff16610b89846103fc565b73ffffffffffffffffffffffffffffffffffffffff16145b91505092915050565b8273ffffffffffffffffffffffffffffffffffffffff16610bca826105d9565b73ffffffffffffffffffffffffffffffffffffffff1614610c20576040517f08c379a0000000000000000000000000000000000000000000000000000000008152600401610c1790612684565b60405180910390fd5b600073ffffffffffffffffffffffffffffffffffffffff168273ffffffffffffffffffffffffffffffffffffffff1603610c8f576040517f08c379a0000000000000000000000000000000000000000000000000000000008152600401610c8690612716565b60405180910390fd5b610c9c83838360016116e2565b8273ffffffffffffffffffffffffffffffffffffffff16610cbc826105d9565b73ffffffffffffffffffffffffffffffffffffffff1614610d12576040517f08c379a0000000000000000000000000000000000000000000000000000000008152600401610d0990612684565b60405180910390fd5b6004600082815260200190815260200160002060006101000a81549073ffffffffffffffffffffffffffffffffffffffff02191690556001600360008573ffffffffffffffffffffffffffffffffffffffff1673ffffffffffffffffffffffffffffffffffffffff168152602001908152602001600020600082825403925050819055506001600360008473ffffffffffffffffffffffffffffffffffffffff1673ffffffffffffffffffffffffffffffffffffffff16815260200190815260200160002060008282540192505081905550816002600083815260200190815260200160002060006101000a81548173ffffffffffffffffffffffffffffffffffffffff021916908373ffffffffffffffffffffffffffffffffffffffff160217905550808273ffffffffffffffffffffffffffffffffffffffff168473ffffffffffffffffffffffffffffffffffffffff167fddf252ad1be2c89b69c2b068fc378daa952ba7f163c4a11628f55a4df523b3ef60405160405180910390a4610e9e83838360016116e8565b505050565b60006002600083815260200190815260200160002060009054906101000a900473ffffffffffffffffffffffffffffffffffffffff169050919050565b610ee8610a54565b73ffffffffffffffffffffffffffffffffffffffff16610f0661072a565b73ffffffffffffffffffffffffffffffffffffffff1614610f5c576040517f08c379a0000000000000000000000000000000000000000000000000000000008152600401610f5390612782565b60405180910390fd5b565b6000600760009054906101000a900473ffffffffffffffffffffffffffffffffffffffff16905081600760006101000a81548173ffffffffffffffffffffffffffffffffffffffff021916908373ffffffffffffffffffffffffffffffffffffffff1602179055508173ffffffffffffffffffffffffffffffffffffffff168173ffffffffffffffffffffffffffffffffffffffff167f8be0079c531659141344cd1fd0a4f28419497f9722a3daafe3b4186f6b6457e060405160405180910390a35050565b8173ffffffffffffffffffffffffffffffffffffffff168373ffffffffffffffffffffffffffffffffffffffff1603611092576040517f08c379a0000000000000000000000000000000000000000000000000000000008152600401611089906127ee565b60405180910390fd5b80600560008573ffffffffffffffffffffffffffffffffffffffff1673ffffffffffffffffffffffffffffffffffffffff16815260200190815260200160002060008473ffffffffffffffffffffffffffffffffffffffff1673ffffffffffffffffffffffffffffffffffffffff16815260200190815260200160002060006101000a81548160ff0219169083151502179055508173ffffffffffffffffffffffffffffffffffffffff168373ffffffffffffffffffffffffffffffffffffffff167f17307eab39ab6107e8899845ad3d59bd9653f200f220920489ca2b5937696c31836040516111839190611c56565b60405180910390a3505050565b61119b848484610baa565b6111a7848484846116ee565b6111e6576040517f08c379a00000000000000000000000000000000000000000000000000000000081526004016111dd90612880565b60405180910390fd5b50505050565b60606111f782610a09565b60006006600084815260200190815260200160002080546112179061229b565b80601f01602080910402602001604051908101604052809291908181526020018280546112439061229b565b80156112905780601f1061126557610100808354040283529160200191611290565b820191906000526020600020905b81548152906001019060200180831161127357829003601f168201915b5050505050905060006112a1611875565b905060008151036112b65781925050506112f9565b6000825111156112eb5780826040516020016112d39291906128dc565b604051602081830303815290604052925050506112f9565b6112f48461188c565b925050505b919050565b600073ffffffffffffffffffffffffffffffffffffffff168273ffffffffffffffffffffffffffffffffffffffff160361136d576040517f08c379a00000000000000000000000000000000000000000000000000000000081526004016113649061294c565b60405180910390fd5b611376816116a1565b156113b6576040517f08c379a00000000000000000000000000000000000000000000000000000000081526004016113ad906129b8565b60405180910390fd5b6113c46000838360016116e2565b6113cd816116a1565b1561140d576040517f08c379a0000000000000000000000000000000000000000000000000000000008152600401611404906129b8565b60405180910390fd5b6001600360008473ffffffffffffffffffffffffffffffffffffffff1673ffffffffffffffffffffffffffffffffffffffff16815260200190815260200160002060008282540192505081905550816002600083815260200190815260200160002060006101000a81548173ffffffffffffffffffffffffffffffffffffffff021916908373ffffffffffffffffffffffffffffffffffffffff160217905550808273ffffffffffffffffffffffffffffffffffffffff16600073ffffffffffffffffffffffffffffffffffffffff167fddf252ad1be2c89b69c2b068fc378daa952ba7f163c4a11628f55a4df523b3ef60405160405180910390a46115176000838360016116e8565b5050565b611524826116a1565b611563576040517f08c379a000000000000000000000000000000000000000000000000000000000815260040161155a90612a4a565b60405180910390fd5b806006600084815260200190815260200160002090816115839190612c16565b507ff8e1a15aba9398e019f0b49df1a4fde98ee17ae345cb5f6b5e2c27f5033e8ce7826040516115b39190611edd565b60405180910390a15050565b60007f80ac58cd000000000000000000000000000000000000000000000000000000007bffffffffffffffffffffffffffffffffffffffffffffffffffffffff1916827bffffffffffffffffffffffffffffffffffffffffffffffffffffffff1916148061168a57507f5b5e139f000000000000000000000000000000000000000000000000000000007bffffffffffffffffffffffffffffffffffffffffffffffffffffffff1916827bffffffffffffffffffffffffffffffffffffffffffffffffffffffff1916145b8061169a5750611699826118f4565b5b9050919050565b60008073ffffffffffffffffffffffffffffffffffffffff166116c383610ea3565b73ffffffffffffffffffffffffffffffffffffffff1614159050919050565b50505050565b50505050565b600061170f8473ffffffffffffffffffffffffffffffffffffffff1661195e565b15611868578373ffffffffffffffffffffffffffffffffffffffff1663150b7a02611738610a54565b8786866040518563ffffffff1660e01b815260040161175a9493929190612d3d565b6020604051808303816000875af192505050801561179657506040513d601f19601f820116820180604052508101906117939190612d9e565b60015b611818573d80600081146117c6576040519150601f19603f3d011682016040523d82523d6000602084013e6117cb565b606091505b506000815103611810576040517f08c379a000000000000000000000000000000000000000000000000000000000815260040161180790612880565b60405180910390fd5b805181602001fd5b63150b7a0260e01b7bffffffffffffffffffffffffffffffffffffffffffffffffffffffff1916817bffffffffffffffffffffffffffffffffffffffffffffffffffffffff19161491505061186d565b600190505b949350505050565b606060405180602001604052806000815250905090565b606061189782610a09565b60006118a1611875565b905060008151116118c157604051806020016040528060008152506118ec565b806118cb84611981565b6040516020016118dc9291906128dc565b6040516020818303038152906040525b915050919050565b60007f01ffc9a7000000000000000000000000000000000000000000000000000000007bffffffffffffffffffffffffffffffffffffffffffffffffffffffff1916827bffffffffffffffffffffffffffffffffffffffffffffffffffffffff1916149050919050565b6000808273ffffffffffffffffffffffffffffffffffffffff163b119050919050565b60606000600161199084611a4f565b01905060008167ffffffffffffffff8111156119af576119ae611f6e565b5b6040519080825280601f01601f1916602001820160405280156119e15781602001600182028036833780820191505090505b509050600082602001820190505b600115611a44578080600190039150507f3031323334353637383961626364656600000000000000000000000000000000600a86061a8153600a8581611a3857611a37612dcb565b5b049450600085036119ef575b819350505050919050565b600080600090507a184f03e93ff9f4daa797ed6e38ed64bf6a1f0100000000000000008310611aad577a184f03e93ff9f4daa797ed6e38ed64bf6a1f0100000000000000008381611aa357611aa2612dcb565b5b0492506040810190505b6d04ee2d6d415b85acef81000000008310611aea576d04ee2d6d415b85acef81000000008381611ae057611adf612dcb565b5b0492506020810190505b662386f26fc100008310611b1957662386f26fc100008381611b0f57611b0e612dcb565b5b0492506010810190505b6305f5e1008310611b42576305f5e1008381611b3857611b37612dcb565b5b0492506008810190505b6127108310611b67576127108381611b5d57611b5c612dcb565b5b0492506004810190505b60648310611b8a5760648381611b8057611b7f612dcb565b5b0492506002810190505b600a8310611b99576001810190505b80915050919050565b6000604051905090565b600080fd5b600080fd5b60007fffffffff0000000000000000000000000000000000000000000000000000000082169050919050565b611beb81611bb6565b8114611bf657600080fd5b50565b600081359050611c0881611be2565b92915050565b600060208284031215611c2457611c23611bac565b5b6000611c3284828501611bf9565b91505092915050565b60008115159050919050565b611c5081611c3b565b82525050565b6000602082019050611c6b6000830184611c47565b92915050565b600081519050919050565b600082825260208201905092915050565b60005b83811015611cab578082015181840152602081019050611c90565b60008484015250505050565b6000601f19601f8301169050919050565b6000611cd382611c71565b611cdd8185611c7c565b9350611ced818560208601611c8d565b611cf681611cb7565b840191505092915050565b60006020820190508181036000830152611d1b8184611cc8565b905092915050565b6000819050919050565b611d3681611d23565b8114611d4157600080fd5b50565b600081359050611d5381611d2d565b92915050565b600060208284031215611d6f57611d6e611bac565b5b6000611d7d84828501611d44565b91505092915050565b600073ffffffffffffffffffffffffffffffffffffffff82169050919050565b6000611db182611d86565b9050919050565b611dc181611da6565b82525050565b6000602082019050611ddc6000830184611db8565b92915050565b611deb81611da6565b8114611df657600080fd5b50565b600081359050611e0881611de2565b92915050565b60008060408385031215611e2557611e24611bac565b5b6000611e3385828601611df9565b9250506020611e4485828601611d44565b9150509250929050565b600080600060608486031215611e6757611e66611bac565b5b6000611e7586828701611df9565b9350506020611e8686828701611df9565b9250506040611e9786828701611d44565b9150509250925092565b600060208284031215611eb757611eb6611bac565b5b6000611ec584828501611df9565b91505092915050565b611ed781611d23565b82525050565b6000602082019050611ef26000830184611ece565b92915050565b611f0181611c3b565b8114611f0c57600080fd5b50565b600081359050611f1e81611ef8565b92915050565b60008060408385031215611f3b57611f3a611bac565b5b6000611f4985828601611df9565b9250506020611f5a85828601611f0f565b9150509250929050565b600080fd5b600080fd5b7f4e487b7100000000000000000000000000000000000000000000000000000000600052604160045260246000fd5b611fa682611cb7565b810181811067ffffffffffffffff82111715611fc557611fc4611f6e565b5b80604052505050565b6000611fd8611ba2565b9050611fe48282611f9d565b919050565b600067ffffffffffffffff82111561200457612003611f6e565b5b61200d82611cb7565b9050602081019050919050565b82818337600083830152505050565b600061203c61203784611fe9565b611fce565b90508281526020810184848401111561205857612057611f69565b5b61206384828561201a565b509392505050565b600082601f8301126120805761207f611f64565b5b8135612090848260208601612029565b91505092915050565b600080600080608085870312156120b3576120b2611bac565b5b60006120c187828801611df9565b94505060206120d287828801611df9565b93505060406120e387828801611d44565b925050606085013567ffffffffffffffff81111561210457612103611bb1565b5b6121108782880161206b565b91505092959194509250565b600067ffffffffffffffff82111561213757612136611f6e565b5b61214082611cb7565b9050602081019050919050565b600061216061215b8461211c565b611fce565b90508281526020810184848401111561217c5761217b611f69565b5b61218784828561201a565b509392505050565b600082601f8301126121a4576121a3611f64565b5b81356121b484826020860161214d565b91505092915050565b6000806000606084860312156121d6576121d5611bac565b5b60006121e486828701611df9565b93505060206121f586828701611d44565b925050604084013567ffffffffffffffff81111561221657612215611bb1565b5b6122228682870161218f565b9150509250925092565b6000806040838503121561224357612242611bac565b5b600061225185828601611df9565b925050602061226285828601611df9565b9150509250929050565b7f4e487b7100000000000000000000000000000000000000000000000000000000600052602260045260246000fd5b600060028204905060018216806122b357607f821691505b6020821081036122c6576122c561226c565b5b50919050565b7f4552433732313a20617070726f76616c20746f2063757272656e74206f776e6560008201527f7200000000000000000000000000000000000000000000000000000000000000602082015250565b6000612328602183611c7c565b9150612333826122cc565b604082019050919050565b600060208201905081810360008301526123578161231b565b9050919050565b7f4552433732313a20617070726f76652063616c6c6572206973206e6f7420746f60008201527f6b656e206f776e6572206f7220617070726f76656420666f7220616c6c000000602082015250565b60006123ba603d83611c7c565b91506123c58261235e565b604082019050919050565b600060208201905081810360008301526123e9816123ad565b9050919050565b7f4552433732313a2063616c6c6572206973206e6f7420746f6b656e206f776e6560008201527f72206f7220617070726f76656400000000000000000000000000000000000000602082015250565b600061244c602d83611c7c565b9150612457826123f0565b604082019050919050565b6000602082019050818103600083015261247b8161243f565b9050919050565b7f4552433732313a20696e76616c696420746f6b656e2049440000000000000000600082015250565b60006124b8601883611c7c565b91506124c382612482565b602082019050919050565b600060208201905081810360008301526124e7816124ab565b9050919050565b7f4552433732313a2061646472657373207a65726f206973206e6f74206120766160008201527f6c6964206f776e65720000000000000000000000000000000000000000000000602082015250565b600061254a602983611c7c565b9150612555826124ee565b604082019050919050565b600060208201905081810360008301526125798161253d565b9050919050565b7f4f776e61626c653a206e6577206f776e657220697320746865207a65726f206160008201527f6464726573730000000000000000000000000000000000000000000000000000602082015250565b60006125dc602683611c7c565b91506125e782612580565b604082019050919050565b6000602082019050818103600083015261260b816125cf565b9050919050565b7f4552433732313a207472616e736665722066726f6d20696e636f72726563742060008201527f6f776e6572000000000000000000000000000000000000000000000000000000602082015250565b600061266e602583611c7c565b915061267982612612565b604082019050919050565b6000602082019050818103600083015261269d81612661565b9050919050565b7f4552433732313a207472616e7366657220746f20746865207a65726f2061646460008201527f7265737300000000000000000000000000000000000000000000000000000000602082015250565b6000612700602483611c7c565b915061270b826126a4565b604082019050919050565b6000602082019050818103600083015261272f816126f3565b9050919050565b7f4f776e61626c653a2063616c6c6572206973206e6f7420746865206f776e6572600082015250565b600061276c602083611c7c565b915061277782612736565b602082019050919050565b6000602082019050818103600083015261279b8161275f565b9050919050565b7f4552433732313a20617070726f766520746f2063616c6c657200000000000000600082015250565b60006127d8601983611c7c565b91506127e3826127a2565b602082019050919050565b60006020820190508181036000830152612807816127cb565b9050919050565b7f4552433732313a207472616e7366657220746f206e6f6e20455243373231526560008201527f63656976657220696d706c656d656e7465720000000000000000000000000000602082015250565b600061286a603283611c7c565b91506128758261280e565b604082019050919050565b600060208201905081810360008301526128998161285d565b9050919050565b600081905092915050565b60006128b682611c71565b6128c081856128a0565b93506128d0818560208601611c8d565b80840191505092915050565b60006128e882856128ab565b91506128f482846128ab565b91508190509392505050565b7f4552433732313a206d696e7420746f20746865207a65726f2061646472657373600082015250565b6000612936602083611c7c565b915061294182612900565b602082019050919050565b6000602082019050818103600083015261296581612929565b9050919050565b7f4552433732313a20746f6b656e20616c7265616479206d696e74656400000000600082015250565b60006129a2601c83611c7c565b91506129ad8261296c565b602082019050919050565b600060208201905081810360008301526129d181612995565b9050919050565b7f45524337323155524953746f726167653a2055524920736574206f66206e6f6e60008201527f6578697374656e7420746f6b656e000000000000000000000000000000000000602082015250565b6000612a34602e83611c7c565b9150612a3f826129d8565b604082019050919050565b60006020820190508181036000830152612a6381612a27565b9050919050565b60008190508160005260206000209050919050565b60006020601f8301049050919050565b600082821b905092915050565b600060088302612acc7fffffffffffffffffffffffffffffffffffffffffffffffffffffffffffffffff82612a8f565b612ad68683612a8f565b95508019841693508086168417925050509392505050565b6000819050919050565b6000612b13612b0e612b0984611d23565b612aee565b611d23565b9050919050565b6000819050919050565b612b2d83612af8565b612b41612b3982612b1a565b848454612a9c565b825550505050565b600090565b612b56612b49565b612b61818484612b24565b505050565b5b81811015612b8557612b7a600082612b4e565b600181019050612b67565b5050565b601f821115612bca57612b9b81612a6a565b612ba484612a7f565b81016020851015612bb3578190505b612bc7612bbf85612a7f565b830182612b66565b50505b505050565b600082821c905092915050565b6000612bed60001984600802612bcf565b1980831691505092915050565b6000612c068383612bdc565b9150826002028217905092915050565b612c1f82611c71565b67ffffffffffffffff811115612c3857612c37611f6e565b5b612c42825461229b565b612c4d828285612b89565b600060209050601f831160018114612c805760008415612c6e578287015190505b612c788582612bfa565b865550612ce0565b601f198416612c8e86612a6a565b60005b82811015612cb657848901518255600182019150602085019450602081019050612c91565b86831015612cd35784890151612ccf601f891682612bdc565b8355505b6001600288020188555050505b505050505050565b600081519050919050565b600082825260208201905092915050565b6000612d0f82612ce8565b612d198185612cf3565b9350612d29818560208601611c8d565b612d3281611cb7565b840191505092915050565b6000608082019050612d526000830187611db8565b612d5f6020830186611db8565b612d6c6040830185611ece565b8181036060830152612d7e8184612d04565b905095945050505050565b600081519050612d9881611be2565b92915050565b600060208284031215612db457612db3611bac565b5b6000612dc284828501612d89565b91505092915050565b7f4e487b7100000000000000000000000000000000000000000000000000000000600052601260045260246000fdfea2646970667358221220607560c7fadb8ee88320181b676e7108528c77309a00569fae74adb2042c692764736f6c63430008110033a2646970667358221220fe93a7d3b90e839e2ce1494c016a20d1d8bd4ed6a1e5e265599777012dcc2d2f64736f6c63430008110033",
  "linkReferences": {},
  "deployedLinkReferences": {}
}